:020000040800F2
:100000008806002091010008990100089B01000862
:100010009D0100089F010008A101000800000000E8
:10002000000000000000000000000000A301000824
:10003000A501000800000000A7010008A9010008B0
:10004000AB010008AB010008AB010008AB010008E0
:10005000AB010008AB010008AB010008AB010008D0
:10006000AB010008AB01000841040008AB01000827
:10007000AB010008AB010008AB010008AB010008B0
:10008000AB010008AB010008AB010008AB010008A0
:10009000AB010008AB010008AB010008AB01000890
:1000A000AB010008A9050008AB010008AB0100087E
:1000B000AB010008AB01000800000000AB01000824
:1000C000AB0100080000000000000000AB010008C8
:1000D00000000000E5060008AB0100080000000079
:1000E000AB010008AB010008AB01000800F002F80A
:1000F00000F03FF80AA090E8000C82448344AAF183
:100100000107DA4501D100F034F8AFF2090EBAE880
:100110000F0013F0010F18BFFB1A43F0010318473B
:10012000DC080000FC080000103A24BF78C878C141
:10013000FAD8520724BF30C830C144BF04680C60ED
:10014000704700000023002400250026103A28BF35
:1001500078C1FBD8520728BF30C148BF0B60704739
:10016000642900F07D80002070471FB51FBD10B5C9
:1001700010BD00F02AF91146FFF7F7FF00F016FB5B
:1001800000F048F903B4FFF7F2FF03BC00F050F9A8
:100190000948804709480047FEE7FEE7FEE7FEE71B
:1001A000FEE7FEE7FEE7FEE7FEE7FEE70448054957
:1001B000054A064B7047000049050008ED0000089D
:1001C0008800002088060020880200208802002085
:1001D0000FB41CB5074B06AA7B44694600900598EE
:1001E00000F0DBF80020694600F0EAF81CBC5DF87E
:1001F00014FB0000E50100002DE9F0410E46044625
:10020000002020622046E168884730B3252805D0C9
:10021000D4E901219047206A401CF2E7E1682046BA
:1002200000278847050018D0A5F14100192802D8F9
:1002300020354FF400673246294620462760FFF7F5
:100240008FFF40B1012804D0F61D26F007060836BE
:10025000D8E7361DD6E72846DAE7206ABDE8F08100
:100260002DE9F0410646002410687529314616A58F
:1002700010D0AFF30080002802DA404213A507E057
:1002800031688A0701D512A502E0490704D511A5F6
:10029000012401E0AFF3008000210A2206F12407C7
:1002A00009E0B0FBF2FCB0FBF2F302FB1C003030C3
:1002B00078541846491C0028F3D123462A46304674
:1002C000BDE8F04100F00BB8000000002D00000078
:1002D0002B000000200000007047704770472DE998
:1002E000F0470D4699469246044600F124080168FD
:1002F000880604D5E06921F01001216000E00120AA
:10030000A84201DD471B00E00027A1697A1902EB32
:100310000900081AA0612078C00602D42046AFF375
:100320000080002608E0D4E901211AF80600904771
:10033000206A401C761C20624E45F4DB2078C00603
:100340000AD52046AFF3008006E0D4E90121302031
:100350009047206A401C2062381EA7F10107F4DC98
:1003600007E0D4E9012118F805009047206A401CF5
:100370002062281EA5F10105F3DC2046AFF30080C2
:100380002078000602D50220BDE8F0870120FBE7B7
:1003900001694A1C02610878704700B58FB0CDE949
:1003A00001310021059105497944CDE90310114639
:1003B0006846FFF721FF0FB000BD0000E5FFFFFF1B
:1003C0000A6802F8010B0A607047754600F02CF8C5
:1003D000AE4605006946534620F00700854618B032
:1003E00020B5FFF7E3FEBDE820404FF000064FF0D8
:1003F00000074FF000084FF0000B21F00701AC465A
:10040000ACE8C009ACE8C009ACE8C009ACE8C00978
:100410008D46704710B50446AFF300802046BDE816
:100420001040FFF7AFBE00000048704724000020D6
:1004300001491820ABBEFEE726000200704700000D
:100440000548006800200449086004480068401C12
:1004500002490860704700001404014000000020B9
:1004600010B500F001F810BD0CB50020019000900F
:100470003348006840F480303149086000BF30489C
:10048000006800F4003000900198401C0190009832
:1004900018B90198B0F5A06FF1D12948006800F4AF
:1004A000003010B10120009001E000200090009881
:1004B000012843D12348006840F01000214908601A
:1004C0000846006820F0030008600846006840F015
:1004D000020008601A4840681949486008464068A8
:1004E00048600846406840F48060486008464068BC
:1004F00020F47C1048600846406840F4E8104860EA
:100500000846006840F08070086000BF0C48006832
:1005100000F000700028F9D00948406820F003007E
:10052000074948600846406840F00200486000BF44
:100530000348406800F00C000828F9D10CBD000009
:10054000001002400020024010B51348006840F03F
:1005500001001149086008464068104908400E49EA
:100560004860084600680E4908400B490860084684
:10057000006820F4802008600846406820F4FE00EF
:1005800048604FF41F008860FFF76AFF4FF000607B
:100590000449086010BD0000001002400000FFF890
:1005A000FFFFF6FE08ED00E070B54348008800202C
:1005B00041490880414805680020404908602A46B2
:1005C0003FA14548FFF704FE434800F003FA4348C3
:1005D0000068854229DD414800682C1A052C05DD9C
:1005E0003F480088401D3E4908801EE0042C05DD80
:1005F0003B480088001D3A49088016E0032C05DDC1
:1006000037480088C01C364908800EE0022C05DD02
:1006100033480088801C3249088006E0012C04DD44
:100620002F480088401C2E4908802D480088B0F5CE
:10063000FA7F03DB40F2F31029490880274800685D
:10064000854229DA25480068441B052C05DD24482D
:1006500000883238224908801EE0042C05DD20483D
:100660000088001F1E49088016E0032C05DD1C4889
:100670000088C01E1A4908800EE0022C05DD1848CB
:100680000088801E1649088006E0012C04DD14480D
:100690000088401E1249088010480068854202D137
:1006A00000200F4908800E480088002802DA002048
:1006B0000B49088070BD0000102C01400000002094
:1006C0000A0D43757272656E7420537065656420FF
:1006D0003D202564000000001000002004000020E0
:1006E0003804004010B518480088002016490880DA
:1006F000081D0088A0F13004002C10DB0A2C0EDA53
:10070000124800680A2101FB004010490860224697
:100710000FA11048FFF75CFD0E4800F05BF904F1F3
:10072000230080B90CA10B48FFF752FD094800F0E7
:1007300051F9064800680A4908600020034908602A
:1007400001200849086010BD003801400800002061
:1007500025640000100000200A0D446F6E652E0015
:10076000040000200C000020002809DB00F01F021C
:10077000012191404209920002F1E022C2F80011E9
:100780007047000010B5002804DB0A07130E054A65
:10079000135406E00A07140E034A00F00F031B1F50
:1007A000D45410BD00E400E018ED00E07C488069FE
:1007B00040F004007A49886100207A4908600846C0
:1007C000006840F0440008600846006840F4885023
:1007D000086074480C30006800F0080071490C3162
:1007E00008607048006840F480206E4908606E48D8
:1007F000006840F010006C4908606B4808300068E1
:1008000040F010006849083108600A20FFF7ACFF8B
:1008100002210A20FFF7B6FF6148806940F480405A
:100820005F49886100205F49091D0860084600682B
:1008300040F49260086068205C490880081D0088C8
:1008400042F20C0108435949091D088008460088F6
:1008500040F0200008802520FFF786FF0321252097
:10086000FFF790FF52A15748FFF7B2FC554800F040
:10087000B1F800BF544800680028FBD048488069A0
:1008800040F400604649886140F69F704F490880F7
:100890008010091D08804D482838008840F08000ED
:1008A0004A492839088049481C38008840F001002E
:1008B00046491C3908801920FFF756FF01211920ED
:1008C000FFF760FF41482838008840F001003F49A9
:1008D000283908803248C06940F002003049C861B8
:1008E0003048006840F010402E49086040F69F7084
:1008F00037490880C010091D08803548283800880D
:1009000040F08000324928390880002030491031F9
:1009100008802F481038008840F4C0402C49103916
:1009200008802B480838008840F0300028490839F2
:10093000088027481038008840F4006024491039A6
:10094000088023482838008840F0010020492839D1
:10095000088023E013480830006800F0010058B90F
:1009600010480C30006800200E490C310860084621
:10097000006840F0040008600A480830006800F091
:10098000020058B907480C300068002005490C31B6
:1009900008600846006840F008000860DAE70000D8
:1009A00000100240000801400004014008380140E6
:1009B0000A0D44657369726564205370656564202F
:1009C0003D200000100000200C000020282C0140D9
:1009D000280400400BE000BF0749098801F08001AE
:1009E0000029F9D010F8011B034A121D118001786B
:1009F0000029F0D170470000003801401C0A0008AF
:100A00000000002010000000280100082C0A000847
:100A100010000020780600004401000800000000DB
:0C0A2000000000000000000000000000CA
:04000005080000ED02
:00000001FF
